:020000040800F2
:10000000F03F0020590400086104000805040008BE
:100010006504000867040008690400080000000087
:100020000000000000000000000000006B04000859
:100030006D0400080000000053030008F556000896
:1000400073040008730400087304000873040008B4
:10005000730400087304000889240008DB240008E6
:10006000EF240008032500081725000809230008CD
:100070007304000873040008730400087304000884
:100080007304000873040008730400087304000874
:100090007304000873040008730400082B2500088B
:1000A0007304000873040008730400087304000854
:1000B0007304000873040008730400087304000844
:1000C0007304000873040008730400087304000834
:1000D0007304000873040008730400087304000824
:1000E0009D240008730400087304000873040008CA
:1000F0007304000873040008730400082123000837
:1001000073040008730400087304000873040008F3
:1001100073040008F957000873040008730400080A
:1001200073040008730400087304000873040008D3
:1001300073040008730400087304000873040008C3
:1001400073040008730400087304000873040008B3
:1001500073040008730400087304000873040008A3
:100160007304000873040008730400087304000893
:100170007304000873040008730400080000000002
:10018000730400087304000800F002F800F0B2F8ED
:100190000AA090E8000C82448344AAF10107DA45E2
:1001A00001D100F0A7F8AFF2090EBAE80F0013F082
:1001B000010F18BFFB1A43F00103184784C4010064
:1001C000A4C401000A444FF0000C10F8013B13F0E6
:1001D000070408BF10F8014B1D1108BF10F8015BA0
:1001E000641E05D010F8016B641E01F8016BF9D193
:1001F00013F0080F1EBF10F8014BAD1C0C1B09D1EA
:100200006D1E58BF01F801CBFAD505E014F8016B5B
:1002100001F8016B6D1EF9D59142D6D370470000ED
:100220000023002400250026103A28BF78C1FBD8FF
:10023000520728BF30C148BF0B6070476E2900F0DD
:100240009F84702900F0E185662916F0F8856529FC
:1002500016F0F585672916F0F285612916F0F1850B
:1002600003681B0A28BF41F08001692900F04C8413
:10027000642900F04984752900F046846F2900F054
:100280006E85782900F0AD85E92900F00985E4291B
:1002900000F00685F52900F00385EF2900F06B8555
:1002A000F82900F0AC850368DB0928BF41F0800124
:1002B000632901F00783732901F00C83E32901F01E
:1002C0001783F32901F01C83002070471FB516F037
:1002D000B1FD00F0BDFE04000020002116F040FC3E
:1002E000401C60600020002116F050FCE0601FBD43
:1002F00010B510BD01F036FB1146FFF7E7FF01F026
:10030000E2FF01F007FC03B4FFF7F2FF03BC01F0CA
:100310000BFC0000002804D090FAA0F0B0FA80F0A6
:10032000401C7047EFF3108072B6704780F310885E
:100330007047424A1368012B04D04FF00103136049
:100340003F4A10603F4A11603F484FF080510160C2
:100350007047EFF3108272B63848016851B34FF01E
:10036000000101603648016891B1EFF309811EF088
:10037000100F08BF21ED108B21E9F00F4FF00004A2
:100380001EF0100F08BF012441F8044D0068016001
:100390002C490968096808C9B1E8F00F002B18BF9B
:1003A000B1EC108B81F309884EF0100E002B18BFB2
:1003B0002EF0100E82F310884EF0040E7047214983
:1003C0000860EFF3148222F0040282F314881C49BF
:1003D0004FF00000086019494FF0010008601B4809
:1003E0001B49D0F8002041EA0201016016484FF095
:1003F0008051016017480068006880F3088861B682
:1004000062B670471EF0040F0CBFEFF30880EFF3E5
:10041000098020E9F00F40F804ED40F804ED1EF0EB
:10042000040F0CBF80F3088880F3098800B50EF034
:1004300063FF5DF804EB4EF0040E70476800002087
:10044000600000206400002004ED00E020ED00E0EA
:100450000000FFFF08ED00E0094880470948004719
:10046000FEE7FEE7FEE7FEE7FEE7FEE7FEE7FEE764
:10047000FEE7FEE704480549034A054B70470000C4
:10048000E957000889010008F03B0020F03F0020F8
:10049000F03B002053EA020C00F069802DE9F04B9C
:1004A0004FF00006002B1FBFB3FA83F503FA05F4E3
:1004B00024FA05F65E4012BF1643B2FA82F502FA3C
:1004C00005F4C5F120051EBF22FA05FC44EA0C0420
:1004D000203556EA044C4FEA144418BF641C4FF010
:1004E00000084FF00009904271EB030C39D300294A
:1004F00019BFB1FA81F701FA07F6B0FA80F700FAEE
:1005000007F6C7F120071EBF20FA07FC46EA0C06D3
:100510002037B6FBF4FCA7EB0507103F07F01F0BD5
:10052000CBF120060CFA0BFB2CFA06F644BFB346BF
:100530000026202FA4BF5E464FF0000B5BEA060C9E
:1005400008BF4FF0010B19EB0B09ABFB027C48EB2A
:100550000608C01B06FB02CC0BFB03CC71EB0C01A5
:10056000C1E70B46024641464846BDE8F08B13B54D
:100570004FF000004FF00001AFF30080BDE81C40D9
:10058000704700001CB50C46064B7B446946009042
:10059000204600F00EFB04460020694600F01CFBDC
:1005A00020461CBD4B06000070B5064600F046FA1A
:1005B0000468054630460A22002100F002F82C604B
:1005C00070BD2DE9F04791460F468046044600264F
:1005D00014F8015B2DB100F029FA0068405DC007F6
:1005E000F6D12B2D02D02D2D18D0641E4A46394647
:1005F000204600F0D9FC27B13968A14201D1C7F8E3
:1006000000804FF0020471050BD54042002803DD45
:1006100000F014FA0460A007BDE8F08746F4806695
:10062000E4E70028F8DA00F009FA04606FF000400F
:10063000F2E740EA010310B59B070FD1042A0DD35E
:1006400010C808C9121F9C42F8D020BA19BA8842B3
:1006500001D9012010BD4FF0FF3010BD1AB1D307F2
:1006600003D0521C07E0002010BD10F8013B11F828
:10067000014B1B1B07D110F8013B11F8014B1B1B51
:1006800001D1921EF1D1184610BD40EA0103024685
:1006900030B59B0710D14FF0013400E008C208C903
:1006A0001D1B9D4315EAC41FF8D013F0FF0102F88B
:1006B000011B0DD01B0AF8E711F8013B002B02F8D3
:1006C000013B05D011F8013B002B02F8013BF3D1AF
:1006D00030BD10B5431C02E010F8011B71B1810759
:1006E000FAD14FF0013202C88C1A8C4314EAC211BD
:1006F000F9D0C01A0A0603D0C01E10BDC01A10BD22
:100700000A0401D0801E10BD0902FCD0401E10BD9D
:1007100040EA010370B59B072ED14FF00136042A41
:100720002AD308C810C99D1B9D43121F15EAC61580
:1007300017D0D8B2E1B2401A50EA056110D198B290
:10074000A1B2401A50EA05410AD123F07F4024F0BB
:100750007F41401A50EA052102D1180EA0EB146027
:1007600070BDA342DBD018BA21BA884201D901205A
:1007700070BD4FF0FF3070BD0AB9002070BD10F899
:10078000013B11F8014B63B1A3420AD1521E08D0BC
:1007900010F8013B11F8014B1BB1A34201D1521ECD
:1007A000EDD1181B70BD421E12F8013F002BFBD18A
:1007B00011F8013B002B02F8013BF9D17047032AE5
:1007C00040F2308010F0030C00F0158011F8013B6E
:1007D000BCF1020F624498BF11F801CB00F8013B55
:1007E00038BF11F8013BA2F1040298BF00F801CB19
:1007F00038BF00F8013B11F0030300F02580083AF0
:10080000C0F0088051F8043B083A51F804CBA0E846
:100810000810F5E7121D5CBF51F8043B40F8043B9B
:10082000AFF30080D20724BF11F8013B11F801CBD0
:1008300048BF11F8012B24BF00F8013B00F801CBA1
:1008400048BF00F8012B704710B5203AC0F00B806C
:10085000B1E81850203AA0E81850B1E81850A0E8C4
:100860001850BFF4F5AF5FEA027C24BFB1E818501E
:10087000A0E8185044BF18C918C0BDE810405FEA8E
:10088000827C24BF51F8043B40F8043B08BF70470A
:10089000D20728BF31F8023B48BF11F8012B28BF0F
:1008A00020F8023B48BF00F8012B704702F0FF031D
:1008B00043EA032242EA024200F002B84FF000028B
:1008C0000429C0F0128010F0030C00F01B80CCF162
:1008D000040CBCF1020F18BF00F8012BA8BF20F8D0
:1008E000022BA1EB0C0100F00DB85FEAC17C24BF24
:1008F00000F8012B00F8012B48BF00F8012B7047CE
:100900004FF0000200B5134694469646203922BFA8
:10091000A0E80C50A0E80C50B1F12001BFF4F7AFF3
:10092000090728BFA0E80C5048BF0CC05DF804EBD5
:10093000890028BF40F8042B08BF704748BF20F843
:10094000022B11F0804F18BF00F8012B704710B533
:10095000044610F0030F08BF11F0030F40F015809C
:100960004FF0013E121FC0F20E8051F8043BA3EB82
:100970000E0C2CEA030C1CEACE1C08BF40F8043B0A
:10098000F0D0A1F1040102F10402521E08DB11F8BB
:10099000013B002B00F8013BF7D11146FFF78EFF1A
:1009A000204610BD4FF0013C50F8042B51F8043B99
:1009B0009A4221D1A2EB0C03934313EACC1317D133
:1009C00050F8042B51F8043B9A4215D1A2EB0C03CA
:1009D000934313EACC130BD150F8042B51F8043B8A
:1009E0009A4209D1A2EB0C03934313EACC13DBD058
:1009F0004FF00000704700BFD01A01BAB1FA81F180
:100A000001F0180122FA01F0CB40C1F12001DBB264
:100A1000C0B2C01A2CFA01F3D11A914311EAC311E2
:100A2000E6D17047704770477047000010B500F07E
:100A30000FFB001D10BD00BF296101000048704779
:100A4000903B002070B5044685690068C10601D559
:100A5000302600E02026C00707D070BDD4E9012170
:100A600030469047206A401C20626D1EF6D570BD4E
:100A700070B5044685690078C00707D170BDD4E918
:100A8000012120209047206A401C20626D1EF6D56F
:100A900070BD09684A0501D540B27047C905FCD54B
:100AA00000B2704709684A0501D5C0B27047C90550
:100AB000FCD580B2704770B50C460546012A05D0BA
:100AC0002878800600D5EA69002302E0012305E0CA
:100AD0005B1C934202D2E05C0028F9D1A869E618B9
:100AE000C01AA861286A184428622846FFF7AAFF9E
:100AF00004E0D5E9012114F8010B9047B442F8D382
:100B00002846FFF7B5FF70BD2DE9F04106460024E9
:100B100010687529314616A510D0FFF7BAFF0028D6
:100B200002DA404213A507E031688A0701D512A511
:100B300002E0490704D511A5012401E0FFF7B2FF47
:100B400000210A2206F1240709E0B0FBF2FCB0FB09
:100B5000F2F302FB1C00303078541846491C002880
:100B6000F3D123462A463046BDE8F04100F0B9BA39
:100B7000000000002D0000002B00000020000000FD
:100B800011680268006A530501D508700AE0D305B0
:100B900001D5088006E0130603D5C217C1E900029B
:100BA00000E008600120704701694A1C0261087872
:100BB000704700B58FB0CDE901310021059105499D
:100BC0007944CDE903101146684600F029F90FB0C9
:100BD00000BD0000E5FFFFFF0A6802F8010B0A6094
:100BE000704700002DE9FF5F15468A460446DFF88E
:100BF000AC80F8440027D8E900103E46CDE900104B
:100C000010E03AF816106A4602A800F08BFE411C6C
:100C100007D02178890603D5E269391891420DD8A9
:100C20000744761C2078800602D5E069B84205DDCD
:100C3000AE42E6DB3AF816000028E2D1A069C01BFC
:100C4000A0612046FFF7FEFED8E90010CDE90010B4
:100C5000002017E03AF818106A4602A800F062FE79
:100C6000B0F1FF3F81460BD000250DF1080B05E0E8
:100C7000D4E901211BF8050090476D1C4D45F7D3C1
:100C800008F10100B0428046E4DB206A384420626B
:100C90002046FFF7EDFEBDE8FF9F0000BEA7010064
:100CA0002DE9F0418046D21D22F007020025D2E94D
:100CB0000002F52915A614D0011E72F1000106DA12
:100CC0000023D0EB030063EB020211A608E0D8F882
:100CD00000108B0701D50FA602E0490701D50EA62B
:100CE00001251146002408F1240704E000F0B4F9BE
:100CF00030323A55641C50EA0102F7D12B46324695
:100D000021464046BDE8F04100F0EBB9000000008C
:100D10002D0000002B0000002000000030B4002156
:100D200000F1240408E002F00705D208303542EA59
:100D30004372DB086554491C52EA0305F3D1046889
:100D4000002310A2250707D5A40600D421B1C46949
:100D500001230DA2641EC46130BC00F0C2B910B5FD
:100D6000044621461068FFF79DFE02462046BDE876
:100D700010400023D2E7D21D22F00701D1E9002361
:100D8000CCE700000000000030000000F0B40D4689
:100D90000188090502D5214C7C4402E01F4C7C44AB
:100DA0000E34002100F1240608E002F00F071209BA
:100DB000E75D42EA03721B097754491C52EA0307B4
:100DC000F3D102780023120704D5702D06D009B1A3
:100DD000022311342246F0BC00F083B90123103401
:100DE000F8E770B504460D4621461068FFF75AFE35
:100DF000024629462046BDE870400023C6E7D21DC2
:100E000022F00703D3E90023C0E70368126843F028
:100E1000200303600823C3610023B7E720A6010075
:100E20002DE9F05F894604464FF0000ADFF874B1FF
:100E3000FB44C0F820A02046E1688847002874D011
:100E4000252806D0D4E901219047206A401C206261
:100E5000F1E700265F462046E168884720280546DE
:100E600007DB312D05D2781910F8200C08B10643A4
:100E7000F1E7B00701D526F00406C4F81CA000274E
:100E8000C4F818A02A2D09D0284604F0D6FF38B39C
:100E900004EB8708303DC8F8185019E059F8041BD6
:100EA000204604EB87029161E1688847012F0546DF
:100EB00018D1E069002820DA26F020061DE0D8F8D5
:100EC000180000EB800005EB40003038C8F818002F
:100ED0002046E1688847054604F0AFFF0028EED1C0
:100EE000012F0AD02E2D08D12046E16888477F1CAB
:100EF0000546022F46F02006C4DBA069002803DA6D
:100F0000404246F00106A061F00701D026F010062D
:100F10006C2D0BD0682D09D04C2D39D06A2D35D0D1
:100F2000742D35D07A2D33D016E038E0E1682F46A5
:100F300020468847B842054609D16C2F26D04FF489
:100F40008060E168064320468847054604E06C2F30
:100F50001AD04FF4807006430DB3A5F14100192853
:100F600002D8203546F400664A46294620462660C7
:100F70004E46FFF763F980B101280BD0F61D26F02D
:100F8000070000F1080956E74020E4E78020D8E791
:100F90000020D6E706F104094DE7284652E7206A0B
:100FA000BDE8F09FB0A501002DE9F05F824615462F
:100FB0008B4600270AF10104B9460078302801D099
:100FC0009DB113E014F8010B0127782803D05828AD
:100FD00001D045B10AE00DB1102D07D1002714F85A
:100FE000010B102502E0082500E00A250026B04686
:100FF0000EE005FB080005FB06F101271FFA80F84B
:1010000001EB1046B6F5803F00D3B94614F8010B4A
:10101000294600F079FC0028EBDABBF1000F05D07F
:101020000FB1641E00E05446CBF80040B9F1000F48
:1010300006D0FFF703FD02210160C81EBDE8F09F46
:1010400048EA0640FAE7000000487047903B00205D
:1010500000487047B03B002030B5B0F10A024FEABB
:10106000900E71F100034EEA817EB0EB0E0061EB51
:1010700091014FEA101E4EEA017E10EB0E0041EB8B
:1010800011114FEA102E4EEA016E10EB0E0041EBEB
:1010900011214FEA104E4EEA014E10EB0E0041EBCB
:1010A0001141401841F100014FEAD00040EA41707F
:1010B0004FEAD10110EB80054FEA810444EA9074B5
:1010C00044EB01046D1944EB0404521BA3414FF09F
:1010D000000348BF0A3200D530BD401C41F1000179
:1010E00030BD2DE9F0470D4699469246044600F181
:1010F00024080168880604D5E06921F01001216008
:1011000000E00120A84201DD471B00E00027A169A3
:101110007A1902EB0900081AA0612078C00602D4EF
:101120002046FFF78FFC002608E0D4E901211AF8D9
:1011300006009047206A401C761C20624E45F4DB76
:101140002078C0060AD52046FFF77CFC06E0D4E9EB
:10115000012130209047206A401C2062381EA7F1F0
:101160000107F4DC07E0D4E9012118F805009047F5
:10117000206A401C2062281EA5F10105F3DC2046F0
:10118000FFF776FC2078000602D50220BDE8F08744
:101190000120FBE770472DE9FF4F0C461E464FF03C
:1011A000FF378BB0D2E90001DDF860800A908A46F3
:1011B000C1F30A5505B93D46002108464FF000002D
:1011C000BAF1000F00F4400005DA00EB80004FF4A4
:1011D000400101EA50004FEA9059B9F1010F00DDDA
:1011E000B9460A9850EA4A000ED044F61050A5F2CB
:1011F000FF3545432F14B8F1000F1ED07542291E4C
:101200001EDDC9F100021CE0B8F1010F4FF0000033
:1012100001D0302103E0F24305E02154401CB042EC
:10122000FBDB30460022002121540B99C1F80880D5
:10123000C1E900200FB0BDE8F08FBD1B6D1CDEE7DB
:101240004A4600DA694206A800F0F2FB06AB93E8D2
:10125000070003AB83E8070050460A9900F06BFCD7
:101260008DE80700A0F500501F3800900398002D6E
:101270000ADD42F21F014A460844002303A90390F5
:10128000684600F0D4FE09E0A0F500504A461F3839
:10129000002303A90390684600F0DEFE8DE80700F6
:1012A0000004000C03D04FF0FF30410800E010466E
:1012B000B8F1000F03D00022009215461EE0751E03
:1012C00005D4FFF7C9FE303262556D1EF9D5B3461D
:1012D0000122084302D000227F1C04E0207830283D
:1012E00001D100227F1E002A099784D01DE0112D14
:1012F00007DAFFF7B1FE303262556D1C50EA010289
:10130000F5D1084302D00098C8B10EE00021681E54
:1013100005E0235C625C63542254401E491C8142F8
:10132000F7DBAB46A81B401E0990002004F80B0019
:101330000B98099AC0F80880C0E9002B7AE71126BB
:101340004FF0000857E72DE9F04F88460446D21DBC
:1013500022F0070191B0D1E90001CDE90A0104F0C2
:10136000A1FC02460B98C00F01D02D2007E0206899
:10137000810701D52B2002E0202101EAC000032AC9
:10138000099001D0072A05DB03464146204600F0BC
:101390000FFB0BE12078800601D5E06900E0062014
:1013A000B8F1650F814606D0B8F1660F18D0B8F1D4
:1013B000670F70D131E00020B9F1110F009001DB0F
:1013C000112301E009F101030AAA01A90CA8FFF702
:1013D000E2FEDDE90C70002609F10105834647E0D5
:1013E00001204B4600904FF000470AAA01A90CA823
:1013F000FFF7D1FEDDE90DB00C995D46002610B96E
:1014000009F101000D18B9EB050003D4C0F1FF3656
:1014100009F10105A5EB09002BE0B9F1010F01DA93
:101420004FF001090020B9F1110F0090484601DD8D
:10143000112300E003460AAA01A90CA8FFF7ABFE9E
:10144000DDE90C704D4600268346207800070AD45B
:10145000AB4500DA5D4601A8012D04DD411911F804
:10146000011C302907D04F4502DA17F1040F04DAC6
:10147000012082460FE06D1EEEE7002F02DCED1B1F
:101480003E4403E0781CA84200DD7D1CB81B00F13F
:10149000010A4FF000472078000703D4AA4501DB7A
:1014A0004FF0FF3A0021B7F1004F0DF143088DF8DE
:1014B000431024D002202B23002F01DA7F422D235A
:1014C0000A21021EA0F1010000DC5FB197FBF1FCD4
:1014D00097FBF1F201FB1C7C17460CF1300C08F86D
:1014E00001CDEEE7A8F1010003702188090501D5BF
:1014F000452100E06521A0F1010800F8011C0998D0
:101500000FA9A1EB0807FF1D00B10120411901EB54
:10151000EA70A1693844081A401EA0612078C0060C
:1015200002D42046FFF78EFA099828B1D4E90121A8
:101530009047206A401C20622078C00622D52046B1
:10154000FFF780FA1EE0002E04DBB34502DD01A8A0
:10155000805D00E03020D4E901219047206A401CE2
:101560002062761CAAF101005FEA000A0AD1FFF7A7
:101570006FFDC0680168405CD4E901219047206A92
:10158000401C2062281EA5F10105DCDC07E0D4E93F
:10159000012118F8010B9047206A401C2062381E78
:1015A000A7F10107F3DC2046FFF762FA032011B030
:1015B00041E600002DE9F04F04460D46D21D22F011
:1015C000070089B0D0E900974846394604F06AFB25
:1015D0000246F80F01D02D2307E02068810701D5CE
:1015E0002B2302E0202101EAC0038DF820300BB14B
:1015F000012000E00020032A824601D0072A04DBF4
:101600002946204600F0D4F93FE12078800601D435
:101610000D2500E0E569C7F30A560D2D49DA0021D2
:101620004FEA175B08464FF00000002F00F440001F
:1016300007DA00EB80004FF4400100EBD07001EAC4
:1016400060008115012901DD4FF0FF3100224FEAD2
:10165000850CBCF1180F06D31346ACF118004FF0FF
:101660008052C24003E04FF4801323FA0CF30CF1D4
:101670000C0CBCF1200F04D3ACF1200C09FA0CF0D7
:1016800001E007FA0CF000294FF0004801DD18B91D
:101690000FE00ED140450CD319EB02095F4121B98F
:1016A000404502D19F4329EA0209BBEB175F00D0F6
:1016B000761C2088000502D57B48784402E07A48F1
:1016C0007844193808AA302302F80A30037C0AF15A
:1016D0000101002E0AF1020A53546A4602DC4FF05F
:1016E000300101E04FF031014FF001088DF800109A
:1016F00002D0A6F2FF3603E059EA470100D06B4E54
:10170000002D02DC2178090704D54FF002082E21B4
:101710008DF80110C44600210BE0C7F303433F01DD
:10172000C35C491C6D1E02F80830052908F1010848
:1017300001DA002DF1DC00210CE000EB1973491CEB
:101740001B786D1E082902F808304FEA091908F1C4
:10175000010801DA002DF0DC21688B0602D516E0C5
:10176000A8F10108E04505DD02EB080313F8013C90
:10177000302BF5D0B8F1000F09DD02EB080313F8A8
:10178000013C2E2B03D1090701D4A8F10108002D3B
:1017900005DD3E2102F808106D1E08F10108407CAD
:1017A000002E02F8080008F1010804DA2D20764224
:1017B00002F8080002E02B2002F808000A214FF48A
:1017C0007A70864208F101080BDB96FBF0F33033A8
:1017D00002F8083096FBF0F308F1010800FB1366ED
:1017E00001E0642E0CDB642096FBF0F3303302F84A
:1017F000083096FBF0F308F1010800FB136601E0E6
:101800000A2E06DB96FBF1F0303002F8080008F1F2
:10181000010896FBF1F001FB1060303002F808007F
:10182000A16908F1010808EB050202EB0A00081A99
:10183000A0612078C00602D42046FFF703F9216A90
:1018400008AE01EB0A00206204E0D4E9012116F899
:10185000010B9047BAF1010AF7D22078C00602D5F1
:101860002046FFF7EFF86E4609E016F8010B3E2818
:101870000FD0D4E901219047206A401C2062B8F1C2
:101880000108F2D22046FFF7F3F809B00320BDE8C3
:10189000F08F206A2844206203E0D4E9012130203F
:1018A00090476D1EEBD3F8E74A9D010002FCFFFF55
:1018B00010B5436913B1AFF3008001E0FFF7FBF807
:1018C000012010BD127800F124010A7000224A7034
:1018D0000122EDE711684FF0FF32E9E710B54369E7
:1018E00013B1AFF3008001E0FFF77CF9012010BDD8
:1018F000128800F1240182840022C2840122EDE7D3
:1019000011684FF0FF32E9E73A2800D2303820F072
:101910002002412A01D3A2F13700884201D34FF0BF
:10192000FF30704770B516460C460546FFF77EF847
:10193000036893F80101012806D0FF2C0FD8185D29
:1019400068B101202C7070BDD3F8070132462146E2
:1019500003F2071303442846BDE8704018474FF0D0
:10196000FF3070BD7546FFF76FFBAE460500694658
:10197000534620F00700854618B020B5FEF77AFDE3
:10198000BDE820404FF000064FF000074FF0000880
:101990004FF0000B21F00701AC46ACE8C009ACE801
:1019A000C009ACE8C009ACE8C0098D46704700002A
:1019B0002DE9F0411F46044603260168072A01F479
:1019C000006004DB08B116A505E016A503E008B128
:1019D00015A500E015A521F010002060A069C01E2B
:1019E000A0610FB1401EA0612046FFF72BF84FB158
:1019F000D4E9012138469047206A401C2062C01C6F
:101A0000206206E0206AFAE7D4E9012115F8010B0B
:101A10009047761EF8D22046FFF72AF8BDE8F081FD
:101A20004E414E006E616E00494E4600696E660082
:101A30002DE9F047814616468AB0354878440DC8EE
:101A40008DE80D0032487844801C03AC0DC884E852
:101A50000D0041F69B300844372190FBF1F290FBDA
:101A6000F1F5A5F1800501FB12041B3C02D564428F
:101A7000012000E00020DFF898A080460027FA440B
:101A8000AAF1BE0A0EE0E0070AD03246684607EB2C
:101A9000470101230AEB810100F0DEFA8DE807001F
:101AA00064107F1C002CEED1194F7F44AE3F19E02B
:101AB000E80715D007EB04100DF1180A90E80E00A6
:101AC0008AE80E00C068F04201D1981908903246A9
:101AD000012306A903A800F0BFFA03AB83E80700BF
:101AE0006D10641C002DE3D14FF0010332466946AE
:101AF000B8F1000F03A802D000F099FA01E000F05D
:101B0000ABFAC9E90001C9F808200AB0BDE8F087BE
:101B1000589A010010B50446AFF300802046BDE896
:101B20001040FEF7F0BB000001491820ABBEFEE7F5
:101B30002600020070475FEA400C08BF91F0000FDA
:101B40004FEA8C234FEAC12243EA51514FEA1C501D
:101B500018BF00F5F0404FEA300018BF41F00041D7
:101B60005FEA6C5C00F02980BCF1FF3F08BF40F0E9
:101B700080407047130C06BF12044FF0100C4FF05A
:101B8000000C130E04BF12020CF1080C130F04BF5B
:101B900012010CF1040C930F04BF92000CF1020C23
:101BA000D30F04BF52000CF1010C11464FF000029C
:101BB000A0F11F00A0EB0C00704711F0004F08BF10
:101BC000704731F000413FF4D5AF0B0C06BF09045C
:101BD0004FF0100C4FF0000C0B0E04BF09020CF17B
:101BE000080C0B0F04BF09010CF1040C8B0F04BF90
:101BF00089000CF1020CCB0F04BF49000CF1010C61
:101C0000CCF12003A0EB0C0022FA03F302FA0CF251
:101C100041EA030100F10100704720F07F4C80EAA7
:101C2000030023F07F47ACEB070303F57C5300F080
:101C3000004003F1FF032DE980494FEA154B09B439
:101C40004FEA144325EA0B4E24EA03480FF2042618
:101C500006EB132749083E785FEA320203FB06676A
:101C6000C7F5000707FB06F64FEA54374FEAD6469A
:101C700006F1020607FB066CCCF1005C4FEA1C473C
:101C80002CEA074C07FB06F40CFB06F504EB1546A3
:101C90004FEA961634BF00204FF000404FEAD1378C
:101CA00006FB07FC4FEA1C4C0CFB0BF7D21B03FB9B
:101CB0000CF761EB07010CFB0EF7B0EB074072EB82
:101CC00017420CFB08F734BFA2EB0742B2EB074206
:101CD00061EB17414FEA0C444FEA910706FB07FC02
:101CE0004FEA1C4C0CFB0BF7B0EBC74072EB5732C2
:101CF00003FB0CF734BFA2EBC742B2EBC74261EB68
:101D000057310CFB0EF7B0EBC70072EB57720CFBB0
:101D100008F734BFA2EBC702B2EBC70261EB577101
:101D2000039F4FEA816141EA921104EBCC044FEA30
:101D3000D1374FEA826206FB07FC42EA90124FEA73
:101D400080604FEA1C4C0CFB0BF7D21B03FB0CF71B
:101D500061EB07010CFB0EF7B0EB074072EB17428B
:101D60000CFB08F734BFA2EB0742B2EB074261EB72
:101D700017414FEA8C554FEA910704EB9C2406FB70
:101D800007FC4FEA1C4C0CFB0BF7B0EBC74072EBA7
:101D9000573203FB0CF734BFA2EBC742B2EBC7428A
:101DA00061EB57310CFB0EF7B0EBC70072EB5772CB
:101DB0000CFB08F734BFA2EBC702B2EBC70261EB22
:101DC000577115EB4C254FEA816141EA92114FEAB8
:101DD00082624FEAD13742EA901206FB07FC44F1D7
:101DE00000044FEA80604FEA1C4C0CFB0BF7D21B3F
:101DF00003FB0CF761EB07010CFB0EF7B0EB0740A0
:101E000072EB17420CFB08F734BFA2EB0742B2EBB0
:101E1000074261EB174115EB1C154FEA813141EA8E
:101E200092414FEA823242EA90424FEA80304FEAD2
:101E30000C7644F1000448EA03434EEA0B484FF0A5
:101E4000000EB2EB080C71EB030724BF6246394663
:101E50004EEB0E0E4FF0000B0018524149414BEB78
:101E60000B0BB2EB080C71EB03077BF1000B24BFEB
:101E7000624639464EEB0E0E4FF0000B00185241F1
:101E800049414BEB0B0BB2EB080C71EB03077BF1F9
:101E9000000B24BF624639464EEB0E0E51EA020794
:101EA00018BF46F0010616EB0E7655F1000254F10C
:101EB000000103D5BDE88901BDE80088BDE88901BE
:101EC000BDE80048B619524141EB0101A3F10103FD
:101ED000704780807F7E7D7C7B7A79787776767597
:101EE0007473727171706F6E6E6D6C6C6B6A6A690F
:101EF0006868676666656464636362616160605FA9
:101F00005F5E5E5D5D5C5C5B5B5A5A595958585721
:101F10005756565555555454535352525251515089
:101F200050504F4F4F4E4E4D4D4D4C4C4C4B4B4BDC
:101F30004A4A4A4949494848484747474746464622
:101F4000454545444444444343434342424242415D
:101F50004141002B9C4630D477002BD01CB54FEA72
:101F6000370703B44FF010004FF01001BAF1000F23
:101F700006D0BCF1000FDCBF40F0080040F00801C3
:101F80004FF000000FBCBDE810400BF1010BBBF19E
:101F9000010F08BF5FEA170722BF12F1010211F11A
:101FA00001014FF0004143F1000300F0004043EA1B
:101FB00000007047F9D35708D0E746EA064613F108
:101FC000400F4FEA16461FDD13F1200FDFBF164307
:101FD0000A46002120335B42BED0C3F1200746EA07
:101FE000064602FA07F74FEA164646EA0706C3F125
:101FF000200722FA03F201FA07F721FA03F14FF062
:10200000000342EA0702A7E746EA020646EA064656
:102010004FEA164646EA0106BCBF46EA0646360CBB
:102020004FF000034FF000024FF0000194E72DE95C
:10203000804C9A46934670B491E8380007C831EA5C
:10204000400C48BF34EA430C03D5FFF7E6FDFFF729
:1020500080FFF0BCBDE8008C2DE9804C9A46934689
:1020600070B491E8380007C810F0804F08BF13F033
:10207000804F03D100F005F8FFF76BFFF0BCBDE81F
:10208000008C20F07F4780EA030023F07F4C07EBB1
:102090000C03A3F57C5300F00040A3F1FE0392F083
:1020A000000F00F0B38095F0000F00F077802DE96D
:1020B00001494FEA11404FEA144621EA004800FB6B
:1020C00006FC24EA064708FB06F607FB08F800FBB7
:1020D00007F718EB06484CEB164C4FEA124B18EB7F
:1020E00007484FEA15464CEB174022EA0B4E0BFB14
:1020F00006FC25EA06470EFB06F607FB0EFE0BFB69
:1021000007F71EEB064E4CEB164C4FF000061EEB8D
:10211000074E4CEB174B18EB0B0840F1000018EB87
:102120000E0B58EB000840F100008F1A4FF0000131
:102130003CBFC943661B14BFB5EB040C00213CBF78
:10214000C943F61B4FEA17444EEA8E0E27EA0445B0
:102150004FEA1C4704FB07622CEA074C05FB07F714
:102160000CFB05F604FB0CFC16EB074642EB174292
:1021700016EB0C4642EB1C421BEB060658EB020228
:10218000414146EA9E0601D5BDE80189B619524192
:1021900041EB0101A3F10103BDE801894FEA1445B8
:1021A0004FEA114724EA054621EA074C05FB07F4EC
:1021B00006FB07F70CFB06F105FB0CFC11EB0741D6
:1021C00044EB17444FEA124711EB0C4144EB1C441B
:1021D00022EA074C05FB07F206FB07F70CFB06F6A5
:1021E00005FB0CFC16EB074642EB174216EB0C46C0
:1021F00042EB1C456A1854F1000148BF7047B619FC
:10220000524141EB0101A3F10103704795F0000F2A
:1022100037D04FEA11424FEA144721EA024624EA36
:10222000074C02FB07F106FB07F70CFB06F402FB69
:102230000CFC14EB074441EB17414FEA154714EB34
:102240000C4441EB1C4125EA074C02FB07F506FB59
:1022500007F70CFB06F602FB0CFC16EB074645EBFA
:10226000174516EB0C4645EB1C42121951F10001C3
:1022700048BF7047B619524141EB0101A3F1010378
:1022800070474FEA14454FEA114724EA054621EA10
:10229000074C05FB07F106FB07F70CFB06F24FF0B6
:1022A000000605FB0CFC12EB074241EB174112EB59
:1022B0000C4251EB1C4148BF7047921841EB0101A1
:1022C000A3F10103704710B50FF0E2FB002010BD31
:1022D00070B50346002041F221044FF6FF7510E06F
:1022E00013F8012B80EA02200822060403D584EAB1
:1022F000400080B201E005EA4000521E12F0FF02E9
:10230000F3D1491EECD570BD10B50DF05FFC03484C
:1023100000F050FCBDE810400DF076BC68310020A4
:1023200010B50DF053FC034800F044FCBDE810402C
:102330000DF06ABCCC3100200168CAB2103A1823F3
:10234000B2FBF3F2064B9B5CC3656FF30901032AF2
:1023500002D9091D816500E08165806D704700002C
:10236000AA90010810B5014600208A6A8B694FF0D7
:10237000C074002B0ED0B3F5005F1AD062B3012AEF
:102380002AD0022A28D0032A03D1C96AC90100D55C
:10239000012010BD1AB1012A06D0022AF9D1C96A5A
:1023A000C901F6D5012010BDC96AA142FBD10120A7
:1023B00010BD52B1012A0AD0022A06D0032AF7D151
:1023C000C96AA142F4D1012010BD012010BDC96A23
:1023D000C901FBD5012010BD012010BD30B5046836
:1023E000256825F480252560046863608368402B98
:1023F00004D0036899600068C26030BD03689A60C9
:102400000068C16030BD2DE9F84F0446DDE90A756A
:10241000884691469A46002D04D0012D04D0022D05
:1024200005D103E0062602E0082600E00C26C6F1EE
:10243000F000484501DA4FF0000925B1012D0AD01E
:10244000022D17D10FE00097207853464A464146A7
:1024500000F0FCF90EE00097207853464A464146CA
:1024600000F034FA06E00097207853464A46414689
:1024700000F06AFA08EB06001FFA80F814F8010F62
:102480000028DAD1BDE8F88F10B50DF09FFB0120D0
:1024900000F092FEBDE810400DF0B6BB10B50DF097
:1024A00095FB4FF4806000F087FE4FF4006000F071
:1024B00083FE4FF4805000F07FFE4FF4005000F098
:1024C0007BFE4FF4804000F077FE4FF4004000F0B8
:1024D00073FEBDE810400DF097BB10B50DF076FB14
:1024E000022000F069FEBDE810400DF08DBB10B574
:1024F0000DF06CFB042000F05FFEBDE810400DF015
:1025000083BB10B50DF062FB082000F055FEBDE85E
:1025100010400DF079BB10B50DF058FB102000F005
:102520004BFEBDE810400DF06FBB10B50DF04EFB3B
:10253000202000F041FE402000F03EFE802000F010
:102540003BFE4FF4807000F037FE4FF4007000F057
:1025500033FEBDE810400DF057BB000000220029FB
:1025600005D001291AD002291BD04FF440720E4920
:102570000B6823F440730B600B6813430B600A680D
:1025800022F0F8020A600A68022303EBC00002434B
:102590000A60086840F48030086070474FF4807229
:1025A000E5E74FF40072E2E7103C0240134801688F
:1025B00089050FD5016821F400710160016841F4BB
:1025C00000610160016821F400610160016841F46B
:1025D00000710160016849050FD5016821F480612F
:1025E0000160016841F480510160016821F480516B
:1025F0000160016841F4806101607047003C024065
:1026000008490A6822F440720A600A6842F004022B
:102610000A600A684FF4803343EA002002430A60EC
:1026200070470000103C0240064A136823F44073D0
:10263000136013681360136843F0010313600170A3
:1026400070470000103C024010B509490C6824F4A2
:1026500040740C600C6844F440740C600C6844F0E6
:1026600001040C600260BFF36F8F436010BD000077
:10267000103C0240074A136823F440731360136848
:1026800043F480731360136843F001031360018007
:1026900070470000103C0240074A136823F440735F
:1026A0001360136843F400731360136843F001036D
:1026B0001360016070470000103C02401749086831
:1026C000C206174805D5C26942F01002C261102245
:1026D0000A600A68920605D5C26942F00802C26122
:1026E00020220A600A68520605D5C26942F0040237
:1026F000C26140220A600A68120605D5C26942F02A
:102700000202C26180220A600A68920705D5C26986
:1027100042F02002C2610220086070470C3C024077
:10272000E439002070B5044611490020C86100F06A
:1027300045FE05460F4E09E0601C07D024B100F0AD
:102740003DFE401BA04201D9032070BD3068C0038C
:10275000F2D43068C00701D001203060306810F03A
:10276000F20F03D0FFF7AAFF012070BD002070BD5B
:10277000E43900200C3C024070B5B3F5804F05D021
:102780006FF0704140F82210002070BD50F82230E8
:10279000084C2340D1E9004544EA05148D688E8930
:1027A0002D0245EA064589692C430C431C4340F839
:1027B0002240E9E70000F0CFF0B50C6850F8245053
:1027C000114A1540D1E90123D1E903671A433E4379
:1027D00032434E6932438E693243CE6932430E6AC8
:1027E00032434E6A32438E6A3243CE6A3243CE6BF4
:1027F000096B32430A432A43082B01D142F04002BD
:1028000040F824200020F0BD8000F0FF70B5521C7D
:1028100050F8223003F04043D1E9004544EA051462
:102820008D688E892D0245EA06452C430D8A6D1E62
:1028300044EA05550C7D8969A41E45EA04640C43ED
:102840001C4340F82240002070BD00002DE9FF4FDE
:1028500081B08846924655460C210091203800F000
:10286000FF0B002629E018490BEB4B0001EB800021
:10287000875D00244FF4A079C8450AD2F02D08D214
:10288000380601D5049800E00E982A46414602F029
:10289000ADFB6D1CADB2F00707D0032C05D908F1D4
:1028A00001081FFA88F8554605E07806070E641CF3
:1028B000A4B2082CE0D3761CB6B200988642D2D3DC
:1028C00005B0BDE8F08F0000EA7801082DE9FF4F60
:1028D00081B088469246554610210091203800F07C
:1028E000FF0B002621E0174800EB0B10875D00244A
:1028F0004FF4A079C8450AD2F02D08D2380601D588
:10290000049800E00E982A46414602F06FFB6D1CC9
:10291000ADB2F00701D0072C0DD07806070E641C6D
:10292000A4B2082CE6D3761CB6B200988642DAD35D
:1029300005B0BDE8F08F08F101081FFA88F8554688
:10294000F1E700005E7D01082DE9FF4F82B0884667
:1029500093465D46242101912038C0B200900026A4
:102960002AE000981A4900EBC00001EB8000875D67
:1029700000244FF4A07A4FF00309D0450AD2F02D7D
:1029800008D2380601D5059800E00F982A4641463E
:1029900002F02CFB6D1CADB2B6FBF9F009FB106028
:1029A000022801D1072C0DD07806070E641CA4B2B2
:1029B000082CE2D3761CB6B201988642D1D306B079
:1029C000BDE8F08F08F101081FFA88F85D46F1E7CD
:1029D0004E83010801460020A1F100624FF48043BC
:1029E0009A4204D3224A0A449A4201D201207047F3
:1029F000204A0A449A4201D2022070471E4A0A44E1
:102A00009A4201D2032070471C4A0A44B2F5803F23
:102A100001D2042070471A4A4FF400330A449A4204
:102A200001D205207047174A0A449A4201D2062073
:102A30007047154A0A449A4201D207207047134A48
:102A40000A449A4201D208207047114A0A449A4225
:102A500001D2092070470F4A0A449A4201D20A2043
:102A600070470D4A11449942FAD20B20704700007A
:102A700000C0FFF70080FFF70040FFF70000FFF7FE
:102A80000000FEF70000FCF70000FAF70000F8F77E
:102A90000000F6F70000F4F70000F2F72DE9F0412E
:102AA0000446A76D00F08AFC054694F83500002620
:102AB000022806D08020606584F834600120BDE8DB
:102AC000F0812068016821F01601016020684169E9
:102AD00021F080014161206C08B9A06C20B1206810
:102AE000016821F0080101602068016821F00101FE
:102AF00001600BE000F062FC401B052806D9202095
:102B000034342062032060702670D8E720680068A3
:102B1000C007EFD134343F2094F828108840B860C3
:102B20000120607026700020C9E790F83510022956
:102B300003D08021416501207047052180F83510C0
:102B40000068016821F0010101600020704770B544
:102B50000446002C2AD094F83500022828D020689A
:102B6000016821F0010101602068002505602068EE
:102B70004560206885602068C5602068056121681F
:102B8000212048612046FFF7D7FB3434A560E5607B
:102B900025616561A561E56194F828203F21914098
:102BA0008160256265702570002070BD012070BDB8
:102BB000022070BD2DE9F84304464FF00009CDF81E
:102BC00000906F484FF416510068B0FBF1F7A56D07
:102BD0002E6894F85C00082202FA00F1314210D00D
:102BE0002068016849070CD5016821F004010160E3
:102BF00094F85C0002FA00F1A960606D40F00100F9
:102C0000606594F85C104FF0010808FA01F030425A
:102C100008D021684969090604D5A860606D40F0B4
:102C20000200606594F85C1004208840304208D0AF
:102C300021680968890704D5A860606D40F0040028
:102C4000606594F85C1010208840304220D02168E4
:102C5000096809071CD5A8602068016849030CD5DC
:102C60000068000304D4216C91B1204688470FE02E
:102C7000A16C69B1204688470AE00168C90503D400
:102C8000016821F008010160216C09B120468847E4
:102C900094F85C102020884030424CD021680968AC
:102CA000C90648D5A86094F8350005280BD02068DF
:102CB0000168490330D50068000328D4616C51B322
:102CC0002046884737E02068016821F0160101603E
:102CD0002068416921F080014161206C08B9A06C35
:102CE00020B12068016821F00801016094F85C10AF
:102CF0003F208840A86084F8358084F83490216DA6
:102D000000293BD001B02046BDE8F0430847E16B05
:102D100009B1204688470EE00168C90507D401685B
:102D200021F01001016084F8358084F83490E16B63
:102D300009B120468847606D00281FD0606DC0072C
:102D400014D0052084F835002068016821F00101C5
:102D500001600098401C0090B84203D820680068C9
:102D6000C007F6D184F8358084F83490E16C0029EE
:102D700004D001B02046BDE8F0430847BDE8F88321
:102D8000480300202DE9F041044600F017FB0546FA
:102D90005CB1022084F83500002684F83460206895
:102DA000016821F0010101600DE00120BDE8F08122
:102DB00000F004FB401B052805D920206065032096
:102DC00084F83500F2E720680068C007F0D1216878
:102DD0000A6820480240D4E901031843D4E90335C6
:102DE0002B43184363691843A3691843E3691843E5
:102DF000236A18431043626A042A03D1D4E90B23DF
:102E00001A43104308602068406920F00700656A93
:102E100029460543012704290DD1A06A0543E06A2C
:102E200048B12046FFF79EFA28B14020606584F83B
:102E300035700120BAE7206845612046FFF77CFA2B
:102E400094F85C203F2191408160666584F835707C
:102E50000020ABE73F8010F02DE9F041044600254B
:102E6000A66D94F8340001280DD0012084F83400B8
:102E700094F835700020012F07D084F83400022523
:102E80002846BDE8F0810220FBE7022784F8357070
:102E900060652046FFF7A2FA94F85C103F20884056
:102EA000B0602068016841F016010160206C20B11B
:102EB0002068016841F0080101602068016841F064
:102EC00001010160DCE7000010B50B4A4FF0FF3054
:102ED000106000211160121D10601160064A103A46
:102EE00010601160121D10601160121D10601160E1
:102EF00000F09DFA002010BD203802402DE9F04777
:102F000004460E46DFF88C8098F8180001280BD094
:102F1000012088F818004CF250394846FFF702FCAF
:102F20000246100003D02FE00220BDE8F0874FF0EA
:102F3000FF3030602068184F012801D0A5681CE0E0
:102F4000207C6168FFF75CFB4846FFF7EBFB02461D
:102F5000386820F00400386014E0217C2846FFF730
:102F6000FDFA4846FFF7DEFB0246386820F0FA001B
:102F700038600AB1356005E06D1CD4E902100844E0
:102F8000A842EAD8FFF712FB002088F81800104684
:102F9000CBE70000E4390020103C02400348016800
:102FA00041F000410160002070470000103C0240E9
:102FB0002DE9F0470646894614461D46194F387ECE
:102FC000012808D0012038764CF250384046FFF7EF
:102FD000A9FB18B114E00220BDE8F0879EB1012ED4
:102FE00016D0022E19D022462B464846FFF72CFB5E
:102FF0004046FFF797FB0C490A6822F001020A607D
:1030000000213976E8E7E1B24846FFF70DFBEFE72C
:10301000A1B24846FFF72EFBEAE721464846FFF7F4
:103020003BFBE5E7E4390020103C02400020074963
:103030000A68002A09DA054A054B0C3A1360054B69
:1030400013600968002900DA01207047103C024033
:1030500023016745AB89EFCD2DE9F04F0023DFF861
:103060000C914FF001084FF00F0C08FA03F501EA3C
:103070000504AC4275D123F0030202EB0906D6F831
:1030800008289F074FEA177A0CFA0AF707EA020B9B
:10309000374A904201D1002223E0364A904201D1C2
:1030A00001221EE0344A904201D1022219E0334A43
:1030B000904201D1032214E0314A904201D104220E
:1030C0000FE0304A904201D105220AE02E4A904298
:1030D00001D1062205E02D4A904201D1072200E0ED
:1030E000082202FA0AF25A4521D1DFF8A4A0DAF840
:1030F0000020A243CAF800200AF1040ADAF80020EE
:10310000A243CAF800200AF10402D2F800A02AEA79
:10311000040AC2F800A002F1040ADAF80020A2436F
:10312000CAF80020D6F80828BA43C6F80828046868
:103130005E000322B24094430460DC0800EB840488
:10314000276A5E074FEAD66A0CFA0AF6B743276287
:10315000C4689443C4604468AC4344608468944346
:1031600084605B1C102B80D3BDE8F08F00300140E1
:10317000000002400004024000080240000C02402F
:10318000001002400014024000180240001C0240DF
:10319000003C014010B503F0BBFB00EB40010548CB
:1031A00000EB81004168002903D08068BDE8104031
:1031B000084710BD8800002010B504490A68024283
:1031C00002D00860FFF7E6FF10BD0000143C01408C
:1031D0002DE9F84F0022DFF89C914FF0010809F12A
:1031E000040A03274FF00F0C0AF1040B08FA02F54A
:1031F0000B682B40AB426ED10C7904F00304012C18
:1032000001D0022C15D18668540007FA04FE26EA84
:103210000E06D1F80CE00EFA04FE4EEA060EC0F8D7
:1032200008E04468AC430D79C5F30015954025438B
:1032300045600C79E443A40708D0C568540007FA38
:1032400004F6B5438E68A6402E43C6600C7904F0A0
:103250000304022C11D1D40800EB8406356A54070C
:10326000E40E0CFA04FE25EA0E05D1F810E00EFA81
:1032700004FE4EEA050EC6F820E00568540007FA81
:1032800004F6B5430E7906F00306A6402E43066009
:103290004C6814F4403F67D0374C256845F48045AE
:1032A0002560246804F480440094344C22F0030523
:1032B0002E19D6F8085894074FEA147E0CFA0EF42B
:1032C000A5432F4CA04201D1002424E02D4CA04264
:1032D00002D101241FE047E02B4CA04201D102247F
:1032E00019E02A4CA04201D1032414E0284CA0424A
:1032F00001D104240FE0274CA04201D105240AE0AB
:10330000254CA04201D1062405E0244CA04201D165
:10331000072400E0082404FA0EF42C43C6F80848F9
:10332000D9F800409C434D68ED0300D51C43C9F813
:103330000040DAF800409C434D68AD0300D51C43C3
:10334000CAF80040DBF800409C434D68ED0200D510
:103350001C43CBF80040074D0C352C689C434E684D
:10336000B60200D51C432C60521C102AFFF43EAF5D
:10337000BDE8F88F003C0140443802400030014075
:10338000000002400004024000080240000C02401D
:10339000001002400014024000180240001C0240CD
:1033A0000069084201D00120704700207047002AC0
:1033B00001D08161704709048161704700B54FF009
:1033C000E0200069C00301D500F006F8014800685C
:1033D00000BD00004403002003480168034A12684E
:1033E000114401607047000044030020A401002044
:1033F00010B50B48016841F400710160016841F4A7
:1034000080610160016841F480710160032000F077
:1034100073F8002000F006F800F00AF8002010BD54
:10342000003C024010B50CF0C3FA002010BD7047FC
:1034300008B50A48016841F480410160006800F461
:10344000804000900548001F016841F080510160F4
:10345000006800F08050009008BD00004438024031
:10346000002809DB00F01F02012191404009800083
:1034700000F1E020C0F88012704700280DDB00F05A
:103480001F02012191404009800000F1E020C0F8B6
:103490008011BFF34F8FBFF36F8F7047002809DB98
:1034A00000F01F02012191404009800000F1E0205E
:1034B000C0F8001170470000F0B40D460D4B1B68BA
:1034C000C3F30223C3F10704042C00D90424191DFB
:1034D000072901D2002300E0DB1E012606FA04F1D1
:1034E000491E294099409E40761E16403143F0BC4B
:1034F00002F0F0BB0CED00E000F00701054A106897
:103500004FF6FF03184040EA0120034908431060CA
:10351000704700000CED00E00000FA052DE9F843CB
:1035200004464FF0010820684FF00007C10701D1A1
:1035300040072BD5DFF81891C9F86870FFF73EFFF8
:103540000646444D07E0FFF739FF801B022802D9E9
:103550000320BDE8F88328680001F4D46068217A6C
:10356000800140EA01703B4984310860C9F86880F5
:10357000FFF724FF064606E0FFF720FF801B022826
:1035800001D90320E5E728680001F5D520788007F8
:1035900053D530484030016841F0805101600068E7
:1035A00000F0805000902C4D286840F48070286016
:1035B000FFF704FF064606E0FFF700FF801B022826
:1035C00001D90320C5E72868C005F5D5214D703520
:1035D000286800F44070F8B1A18901F4407181427B
:1035E0001AD0286820F440701C49C1F800800F6090
:1035F00028602868C0070FD0FFF7E0FE064641F2BA
:10360000883706E0FFF7DAFE801BB84201D90320B5
:103610009FE728688007F5D5E0680E49C0F30122CE
:103620000831032A0BD0086820F4F81008602868D5
:10363000A189C1F30B0108432860002089E70A68CB
:10364000074B22F4F812184002430A60EFE700002B
:10365000000047420038024000700040400E4742E0
:10366000FFFCFF0F2DE9F04704460D46002C13D058
:10367000DFF82891D9F80000EFB200F00700A84267
:103680000CD289F80070D9F8000000F00700A842B9
:1036900004D00120BDE8F0870120FBE72068404E00
:1036A000810712D5400703D5306840F4E050306000
:1036B0002078000703D5306840F4604030603068FF
:1036C000A16820F0F000084330602078C00731D0B6
:1036D000334960680839012808D002280BD0032834
:1036E00009D0096889070BD40120D3E70968890349
:1036F00006D40120CEE70968890101D40120C9E779
:10370000316821F0030101433160FFF757FE804625
:1037100041F2883A07E0FFF751FEA0EB0800504560
:1037200001D90320B6E73068616800F00C00B0EB07
:10373000810FF0D1D9F8000000F00700A84209D9A4
:1037400089F80070D9F8000000F00700A84201D005
:1037500001209FE72078400705D53068E16820F414
:10376000E050084330602078000706D530682169B2
:1037700020F4604040EAC100306000F0E1F83168B8
:10378000084AC1F30311515CC84007490860074863
:103790000068FFF747FE00207CE70000003C024085
:1037A00008380240B290010848030020400300207E
:1037B0002DE9F041FFF702FE0546484C206840F035
:1037C0000100206007E0FFF7F9FD401B022802D945
:1037D0000320BDE8F08120688007F4D5206840F020
:1037E00080002060FFF7EAFD05463C4E00200836C9
:1037F000306041F2883706E0FFF7E0FD401BB84239
:1038000001D90320E5E7306810F00C0FF4D1FFF781
:10381000D5FD0546206820F45020206006E0FFF723
:10382000CDFD401B642801D90320D2E72068800326
:10383000F5D4FFF7C3FD0546206820F080702060B6
:1038400006E0FFF7BBFD401B022801D90320C0E7BB
:1038500020688001F5D4FFF7B1FD0546206820F00F
:103860008060206006E0FFF7A9FD401B022801D917
:103870000320AEE720680001F5D418491848091D57
:103880000860164917488431086014480C300168F4
:1038900021F4F8510160016821F4005101600168D0
:1038A00041F41F010160016841F4001101600B48FF
:1038B0007430016821F001010160016841F08071FC
:1038C00001600A490848086009480068FFF7AAFD36
:1038D00008B101207DE700207BE7000000380240AE
:1038E00010300004003000200024F40048030020C1
:1038F0004003002001480068704700004803002092
:1039000000B5FFF7F7FF04490968044AC1F38221B3
:10391000515CC84000BD000008380240C290010858
:1039200000B5FFF7E7FF04490968044AC1F34231D3
:10393000515CC84000BD000008380240C290010838
:1039400010B51748006810F00C01164816D0431047
:10395000042912D0082911D1114C241F216801F02B
:103960003F02216849020AD52068C0F38810A0FBF5
:1039700003010023FCF78EFD09E0184610BD216805
:103980000023C1F38811A1FB0001FCF783FD21682E
:10399000C1F30141491C4900B0FBF1F010BD00002A
:1039A000083802400024F4002DE9F84F0446002CAA
:1039B00013D02078DFF8A083C007A8F1040556D003
:1039C00008F104000168C1F3810101290CD00068ED
:1039D000C0F38100022803D00DE00120BDE8F88F7C
:1039E000D8F80000400206D5286880033FD56068FB
:1039F00070BB0120F2E76068B0F5803F10D0B0F5F1
:103A0000A02F12D0286820F480302860286820F485
:103A1000802028606068E0B1FFF7D0FC064614E023
:103A2000286840F480302860F4E7286840F480205B
:103A30002860286840F480302860EBE7FFF7BEFC80
:103A4000801B642801D90320C8E728688003F5D5C6
:103A50000DE0FFF7B3FC064606E0FFF7AFFC801B66
:103A6000642801D90320B9E728688003F5D42078B9
:103A7000BA4F80074FF0000948D5B748001D0168CC
:103A800011F00C0F08D00068C0F38100022813D198
:103A9000D8F8000040020FD42868800704D5E068F9
:103AA000012801D0012099E72868216920F0F80059
:103AB00040EAC100286029E0E068B8B10120386020
:103AC000FFF77CFC064606E0FFF778FC801B022827
:103AD00001D9032082E728688007F5D52868216985
:103AE00020F0F80040EAC10028600FE0C7F800901D
:103AF000FFF764FC064606E0FFF760FC801B022827
:103B000001D903206AE728688007F5D420780007E8
:103B100029D5DFF844A2924861690AF1700A89B197
:103B200001210160FFF74AFC064606E0FFF746FC6C
:103B3000801B022801D9032050E7DAF80000800733
:103B4000F4D510E0C0F80090FFF738FC064606E018
:103B5000FFF734FC801B022801D903203EE7DAF886
:103B600000008007F4D42078400778D54FF0000A91
:103B700079483C300068C0000BD477483C3001687D
:103B800041F080510160006800F0805000904FF0DB
:103B9000010ADFF8D0B1DBF80000C00514D4DBF86F
:103BA000000040F48070CBF80000FFF707FC0646E9
:103BB00006E0FFF703FC801B022801D903200DE774
:103BC000DBF80000C005F4D5634EA0686C36012810
:103BD0000FD0052812D0306820F001003060306826
:103BE00020F004003060A068F8B1FFF7E7FB8346DF
:103BF00017E0306840F001003060F4E7306840F0D2
:103C000004003060306840F001003060EBE7FFF7FF
:103C1000D5FBA0EB0B0141F28830814201D9032092
:103C2000DCE630688007F2D510E0FFF7C7FB83467B
:103C300009E0FFF7C3FBA0EB0B0141F288308142A2
:103C400001D90320CAE630688007F2D4BAF1010F27
:103C500005D141483C30016821F080510160A069E4
:103C6000C0B33D49091D09684FF0FF36C1F381011A
:103C7000022946D0022805D0C7F86090FFF79EFBC6
:103C800004463AE0C7F86090FFF798FB814607E0EA
:103C9000FFF794FBA0EB0900022801D903209DE661
:103CA00028688001F4D4D4E907010843616AA26A54
:103CB000890106EB520241EA0241084394F82C10B4
:103CC00040EA0160C8F8000001203866FFF776FB83
:103CD000044607E03DE0FFF771FB001B022801D915
:103CE00003207BE628688001F5D532E0FFF766FB0C
:103CF000001B022801D9032070E628688001F5D452
:103D000027E0012823D0D8F80000E26900F4800100
:103D100091421AD1226A00F03F01914215D147F633
:103D2000C071626A0140B1EB821F0ED1A26A00F439
:103D3000403106EB5202B1EB024F06D194F82C1041
:103D400000F07060B0EB016F03D0012046E6012067
:103D500044E6002042E600000438024000004742EA
:103D6000800E4742007000402DE9F04704468A4625
:103D70000027207901280ED00126267160794FF0A6
:103D80000008012809D00420A060012784F80480DD
:103D90003846BDE8F0870220FBE74FF0020984F8BF
:103DA0000590FFF70BFB054610E0FFF707FB401BF4
:103DB00002280BD920684068C043C00706D066714E
:103DC000C4F8089084F804800120E2E72068406885
:103DD000C043C007E9D120688068E060CAF80000ED
:103DE0006671D3E770B50446002C03D060790025D6
:103DF00010B105E0012070BD2571204600F00CF8DF
:103E0000022060712068016841F004010160012016
:103E10006071A560002070BD7047704790F8510038
:103E2000704770B50446002C09D0606A002540B187
:103E300025616561A56294F8510040B10CE0012054
:103E400070BD6068B0F5827FF4D0E561F2E784F878
:103E50005050204600F044F8022084F851002068B9
:103E6000016821F040010160A088218900F482707E
:103E700001F404410843A18901F400610843217C55
:103E800001F002010843217D01F001010843218B6B
:103E900001F400710843217F01F03801084394F8D0
:103EA000201001F080010843218D01F400510843E6
:103EB00021680860A069042101EA104094F82410E8
:103EC00001F010010843216848602068C16921F4AD
:103ED0000061C1616565012084F85100002070BD5A
:103EE0002DE9F04186B00446142101A8FCF708FD35
:103EF00041482268002441490225032605278242C1
:103F000026D13E481430026842F4805202600068B4
:103F100000F480500090086840F0010008600868D4
:103F200000F001000090E0200190029503940496B7
:103F3000059701A93248FFF74BF9002211462320CB
:103F4000FFF7BAFA2320FFF7A9FA06B0BDE8F0811F
:103F50002A4B2C481033DFF8B08082422DD11868EC
:103F600040F480401860186800F4804000900868B1
:103F700040F004000860086800F004000090086841
:103F800040F002000860086800F0020000900C2079
:103F90000190029503940496059701A91B48FFF729
:103FA00017F94FF400500190029503940496059779
:103FB00001A94046FFF70CF9C7E715488242C4D172
:103FC000186840F400401860186800F40040009041
:103FD000086840F002000860086800F002000090E5
:103FE000382001900295039404960620059001A9BB
:103FF0004046FFF7EDF8A8E70030014030380240B6
:104000000000024000380040000402400008024066
:10401000003C00402DE9F84F04468A4691461D4673
:10402000002660684FF0040BB0F5827F01D1A068D4
:1040300088B194F85000012818D0012084F850006D
:10404000FFF7BCF9074694F851004FF0000801282B
:104050000ED0022682E084F851B04B4652465146BB
:104060002046009500F0C5F9BDE8F88F0220FBE777
:10407000BAF1000F1BD0B9F1000F18D084F851B07D
:10408000C4F85480C4F838A0A4F83C90A4F83E903A
:10409000C4F83080A4F83480A4F83680C4F8408096
:1040A000C4F84480A068B0F5004F02D00BE00126B0
:1040B00054E02068016821F0400101602068016837
:1040C00021F48041016020680168490603D4016839
:1040D00041F040010160E068B0B131E020688168E2
:1040E000C90709D0007BA16B0870A06B401CA063BE
:1040F000E08F401EE08707E0FFF760F9C01BA84291
:1041000001D3681C04D11DB1E08F0028E6D11AE06C
:10411000032623E020688168C90709D0C068A16B25
:104120000880A06B801CA063E08F401EE08707E042
:10413000FFF744F9C01BA84201D3681C15D1A5B1F3
:10414000E08F0028E6D13A462946204601F0FFF9E3
:1041500008B120206065606D00B10126012084F85F
:10416000510084F8508030467EE70326F6E70000D1
:104170002DE9F04104460025A0680423002803D15E
:104180006668B6F5827F0ED094F85060012E13D089
:10419000012784F8507094F851C00026BCF1010F3B
:1041A0000DD0022554E084F851302046BDE8F0419E
:1041B00013460A4600F010BA0220BDE8F08171B142
:1041C0006AB184F851306665A163A287E2872664EC
:1041D0006664A686E686B0F5004F02D00BE00125A6
:1041E00036E02068016821F0400101602068016824
:1041F00021F480410160E16C17480864E16C1748C4
:10420000C863E16C1648C864E06C0665E38F2168FA
:10421000A26B0C31E06CFEF71FFE38B1606D40F010
:1042200010006065012584F8517011E02068016874
:10423000490603D4016841F04001016020684168EB
:1042400041F0200141602068416841F00101416076
:1042500084F850602846B0E7075400082554000849
:10426000E5530008704770472DE9F84F04468B4628
:1042700092461D46002694F8500001280DD04FF0BC
:10428000010984F85090FFF799F8074694F8510017
:10429000B046012804D00226A5E00220BDE8F88F30
:1042A000BBF1000F1CD05FEA0A0019D0032084F88C
:1042B0005100C4F85480C4F830B0A4F834A0A4F875
:1042C00036A0C4F83880A4F83C80A4F83E80C4F836
:1042D0004480C4F84080A068B0F5004F02D00BE0E5
:1042E000012680E02068016821F04001016020681B
:1042F000016841F48041016020680168490603D4E7
:10430000016841F040010160E068B0F5006F05D040
:10431000606878B3BAF1010F2DD04DE0606810B13C
:10432000BAF1010F20D1206B21680088C860206B92
:10433000801C2063E08E401EE08615E020688168C6
:10434000890709D5216B0988C160206B801C206317
:10435000E08E401EE08607E0FFF730F8C01BA84261
:1043600001D3681C04D11DB1E08E0028E6D126E0FF
:10437000032638E0FFE7206B216800780873206B84
:10438000401C2063E08E401EE08615E020688168B6
:10439000890709D5216B09780173206B401C2063C4
:1043A000E08E401EE08607E0FFF708F8C01BA84239
:1043B00001D3681C0ED16DB1E08E0028E6D13A46DB
:1043C0002946204601F00AF908B120206065A0685E
:1043D00010B105E0032606E02068C16880680090FF
:1043E000606D00B1012684F8519084F85080304609
:1043F00054E72DE9F84F04460A9E8A4693461F4625
:1044000001254FF0000894F8500001280ED001203B
:1044100084F85000FEF7D2FF814694F8510061689D
:1044200001280DD0B1F5827F07D102E00220BDE85E
:10443000F88FA16809B9042802D04FF00208C3E040
:10444000BAF1000F28D0BBF1000F25D0380023D0DF
:1044500094F85100042802D0052084F8510000206F
:104460006065C4F838B0E787A787C4F830A0E7864E
:10447000A7862064606420680168490603D4016847
:1044800041F040010160E068B0F5006F07D060685E
:10449000E8B3012F48D07DE04FF0010894E0606858
:1044A00008B1012F39D1206B21680088C860206BCA
:1044B000801C2063E08E401EE0862EE0206881682C
:1044C00089070DD5E18E59B1012D09D1216B0988DC
:1044D000C160206B801C2063E08E401EE0860025BA
:1044E00020688168C9070BD0E18F49B1C068A16B12
:1044F0000880A06B801CA063E08F401EE087012530
:10450000FEF75CFFA0EB0900B04206D300E00BE031
:10451000701C02D04FF0030856E0E08E0028CDD189
:10452000E08F0028CAD13BE0206B21680078087337
:10453000206B401C2063E08E401EE0862AE020684D
:10454000816889070DD5E18E59B1012D09D1216B03
:1045500009780173206B401C2063E08E401EE086CA
:10456000002520688168C9070BD0E18F49B1C06878
:10457000A16B0870A06B401CA063E08F401EE08719
:104580000125FEF71BFFA0EB0900B04201D3701C10
:1045900011D186B1E08E0028D1D1E08F0028CED194
:1045A0004A463146204601F019F838B14FF001086B
:1045B0002020606508E04FF0030805E0A06818B906
:1045C0002068C1688068009001205034607000202D
:1045D000207040462BE700002DE9F04104460025FD
:1045E00094F8500001280DD0012784F8507094F8F9
:1045F0005100D4F804C0002601280FD0BCF5827FFA
:104600000AD102E00220BDE8F081D4F808C0BCF174
:10461000000F01D1042801D002256AE081B37AB3EA
:1046200073B394F85100042802D0052084F8510097
:1046300066652163A386E386A263A387E387266476
:10464000666494F8510004281DD0E16C2B4808647E
:10465000E16C2B48C863E16C2A48C864E06C0665CD
:10466000E38F2168A26B0C31E06CFEF7F5FB88B19B
:10467000606D40F010006065012584F8517038E0ED
:10468000FFE7012535E0E16C1F480864E16C1F4835
:10469000C863E0E72068416841F001014160A06C17
:1046A0000664A06CC663A06CC664A06C0665E38E4D
:1046B0002268216B0C32A06CFEF7CEFB38B1606D26
:1046C00040F010006065012584F8517011E0206809
:1046D0000168490603D4016841F040010160206887
:1046E000416841F0200141602068416841F00201C9
:1046F000416084F85060284685E700001B5400089C
:10470000F5540008E5530008075400082554000834
:104710002DE9F0410446002594F85000012809D005
:10472000012784F8507094F851000026012804D025
:1047300002254EE00220BDE8F08189B182B103205C
:1047400084F8510066652163A286E286A6636664EA
:104750002664A687E687A068B0F5004F02D00BE07C
:10476000012536E02068016821F0400101602068E1
:10477000016841F480410160A16C18480864A16C93
:104780001748C863A16C1748C864A06C0665E38E1F
:104790002268216B0C32A06CFEF75EFB38B1606DB5
:1047A00040F010006065012584F8517011E0206828
:1047B0000168490603D4016841F0400101602068A6
:1047C000416841F0200141602068416841F00201E8
:1047D000416084F850602846ADE70000115400089D
:1047E00091540008E55300087047704770477047C0
:1047F00070B504460E461546002C03D094F84900C7
:1048000010B107E0012070BD002084F84800204668
:1048100000F01AF804F108012068FDF7CDFF3146D9
:10482000A2682068FDF7F2FFD4E901022946236B54
:10483000FDF7A2FFA168206850F8212042F0010294
:1048400040F82120002070BD10B586B027480168CF
:1048500041F001010160006800F001000090234870
:104860000838016841F008010160016801F00801A1
:104870000091016841F010010160016801F0100130
:104880000091016841F020010160016801F0200100
:104890000091016841F040010160006800F04000B3
:1048A00000904CF23370019002200290012003909E
:1048B000032004900C20059001A90D48FEF788FC08
:1048C0004FF68070019001A90A48FEF781FC4FF471
:1048D0008054019401A90848FEF77AFC019401A9CB
:1048E0000648FEF775FC06B010BD000038380240DF
:1048F000000C024000100240001402400018024068
:1049000010B5401EB0F1807F01D3012010BD4FF0E3
:10491000E02460610F21601701F0DCF90020A06144
:1049200007202061002010BD704710B50446002C00
:1049300012D0242084F83D002068C16821F4005181
:10494000C160204600F052F90020303420616073CD
:10495000A0732060207310BD012010BD70470000BF
:10496000F8B5044622681068D168536900F00F0654
:10497000002E08D1850606D58D0604D52046BDE853
:10498000F84001F028B80025002E66D003F001069B
:1049900001F49077374360D0C20705D0CA0503D52C
:1049A000226C42F001022264420705D5DA0703D0E7
:1049B000226C42F002022264820705D5DA0703D096
:1049C000226C42F004022264020707D501F02002A3
:1049D000324303D0226C42F008022264226C002A87
:1049E00031D0800604D5880602D5204600F0F3FFBA
:1049F00020684069C0F38010216C090700D438B3E7
:104A0000204600F0A6FF2068406940061CD52068BB
:104A1000143050E8001F21F0400140E80012002A45
:104A2000F5D1A06B60B157490165A06BFEF77DF829
:104A3000002808D0A06B016D01B0BDE8F040084728
:104A40002046FFF78BFFF8BD2046FFF787FFF8BD34
:104A50002046FFF783FF2564F8BD236B012B7ED131
:104A6000C3067CD5CB067AD5106850680090506993
:104A70004FF02003400643D5A16B0868406880B220
:104A80000028E9D0A28D8242E6D9E085C869B0F558
:104A9000807F2DD020680C3050E8001F21F48071F9
:104AA00040E80012002AF5D12068143050E8001FB9
:104AB00021F0010140E80012002AF5D120681430ED
:104AC00050E8001F21F0400140E80012002AF5D113
:104AD00084F83E30256320680C3050E8001F21F038
:104AE000100140E80012002AF5D1A06BFDF7D6FFB7
:104AF000A08DE18D401A81B22046FFF715FFF8BD69
:104B0000A08DE18D401A81B2E08D0028F7D00029F8
:104B1000F5D020680C3050E8002F22F4907240E865
:104B20000026002EF5D12068143050E8002F22F026
:104B3000010240E80026002EF5D184F83E302563BE
:104B400020680C3050E8002F22F0100240E80023CB
:104B5000002BF5D12046FFF7E7FEF8BDFFE7020680
:104B600006D50A0604D52046BDE8F84001F06AB82B
:104B70004006F2D54806F0D52046BDE8F84000F0E2
:104B80000FBF00001158000870B50446002C04D077
:104B900094F83D00002510B106E0012070BD84F8B6
:104BA0003C50204600F052F8242084F83D00206854
:104BB000C16821F40051C160204600F06FFF2068F9
:104BC000016921F4904101612068416921F02A01C5
:104BD00041612068C16841F40051C1602564202012
:104BE00084F83D0084F83E00002070BD10B50068D8
:104BF000114988420ED11148016821F0100101606D
:104C00004FF4C0610E48FEF727FABDE8104025209A
:104C1000FEF733BC0B4988420CD10848001F0168DD
:104C200021F480210160BDE810404FF44061064846
:104C3000FEF712BA10BD00000010014044380240D7
:104C4000000002400048004000040240F0B587B078
:104C50000446142102A8FBF753FE404A216840484D
:104C60000224012503260723914225D13C49143112
:104C70000A6842F010020A60096801F0100101910F
:104C8000016841F001010160006800F0010001903D
:104C900070020290039404950596069302A9314888
:104CA000FEF796FA002211462520FEF705FC252086
:104CB000FEF7F4FB07B0F0BD294A2B4F1032B94282
:104CC0001BD1116841F480211160116801F4802129
:104CD0000191016841F002010160006800F00200EA
:104CE00001904FF44060029003940495059606935A
:104CF00002A91E48FEF76CFADCE71D4B9942D9D198
:104D0000116841F480111160116801F48011019162
:104D1000016841F004010160016801F004010191A2
:104D2000016841F008010160006800F0080001908E
:104D3000042002900394049505960827069702A97B
:104D40000C48FEF745FA7802029003940495059604
:104D5000069702A90848FEF73BFAABE700100140AE
:104D60003038024000000240004800400004024089
:104D700000500040000C02400008024090F83E3015
:104D8000202B01D00220704759B152B190F83C302D
:104D9000012B08D0012380F83C300023036300F08E
:104DA00007BF012070470220704700F5887001F0AE
:104DB00085BE00F5887001F081BE0000F7B504469D
:104DC00094F83D00202801D00220FEBD019999B33E
:104DD00092B394F83C00012831D0012084F83C00C3
:104DE0002162A284E28400252564212084F83D000C
:104DF000636B1448D863636B13481864636B134880
:104E0000D864606B056526681346361D3246606BB4
:104E1000FEF722F821686FF04000086084F83C50EB
:104E20002068143050E8001F41F0800140E8001273
:104E3000002AF5D10020FEBDFFE70120FBE702209C
:104E4000F9E70000075900084959000821580008EF
:104E500000F5887000F092BF70477047704730B51A
:104E6000044608461D4691B280B200F053FA00F0A5
:104E700077FA4FF0D84004E034F8021BA0F8801015
:104E80006D1E002DF8D130BD70B5064600240A4ACB
:104E9000118855884D430021084600F03BFA00F088
:104EA0005FFAB0B24FF0D84102E0A1F88000641C74
:104EB000AC42FAD370BD0000383900202DE9F04F24
:104EC000384B987119462A242B2589884FF02C0CD1
:104ED00045F210594FF4305A4FF448764FF0F00B2A
:104EE00049F2413E4FF4A07845F210374FF4F0728A
:104EF00000280CD0A3F80080A3F802B0714501D0BF
:104F0000B9422ED1A3F808C05C819D8140E0A3F88E
:104F100000B0A3F80280714501D0B94209D1A3F8CD
:104F200008C05C819D81B94237D1A3F800805A80C6
:104F300033E049450AD1A3F808A04FF4285058811E
:104F40004FF42C5098811A805E8026E0A1F5C8505D
:104F5000633822D1A3F808C05D819C811A805E80ED
:104F60001BE049450AD1A3F808A04FF42850588106
:104F70004FF42C5098811E805A8009E0A1F5C8504A
:104F8000633805D1A3F808C05C819D811E805A80DA
:104F9000B94202D11A80A3F80280BDE8F04F002088
:104FA00000F0D2B83839002030B50C4605880D4BDA
:104FB000588900F0CFF9C4F30F2000F0C5F9E0B232
:104FC00000F0C2F9988900F0C5F9C2F30F2000F093
:104FD000BBF9D0B200F0B8F90348198901804580C7
:104FE00030BD0000383900207E00006C30B5054629
:104FF0000C460D4B588900F0ADF9C4F30F2000F0BA
:10500000A3F9E0B200F0A0F9988900F0A3F9C2F387
:105010000F2000F099F9D0B200F096F903481989F1
:105020000180458030BD0000383900207E00006CD2
:1050300030B50546541A641C98B28AB2014610462F
:1050400000F068F900F08CF94FF0D84103E02A88AD
:10505000A1F88020641E002CF9DC30BD01480088D6
:10506000704700008000006C30B50446214D288850
:10507000884202DD6888904202DC0020208030BD3A
:1050800090B28AB20146104600F044F9A88841F671
:105090006312A0F51341413905D0A0F5A64110399E
:1050A00001D0904203D12E2000F054F907E0A0F582
:1050B000AA41103903D14FF4385000F04BF9FFF7F3
:1050C000CDFFA988914201D1208030BDFFF7C6FFF6
:1050D0000146FFF7C3FFCAB24FF6FF7303EA02228D
:1050E0006FF30A01920A41EA421141EAD02020807E
:1050F00030BD00003839002010B50246BE2000F057
:1051000029F9052000F020F9104611F082FD9FEDED
:105110000C1B53EC112B11F08FFD11F04DFD80B2E3
:1051200000F012F9012000F00FF9FF2000F00CF957
:10513000002000F009F9BDE81040002000F004B99B
:105140006666666666660440F0B50023704C41F6FC
:1051500063152146A2798988012A01D1A94202D189
:10516000C2B9A94216D1082814D2DFE800F004061B
:10517000080A0C0E101206200CE007200AE004209A
:1051800008E0052006E0012004E0002002E0032002
:1051900000E00220A1F5134745F2103245F2105607
:1051A000413F05D0914203D0B14201D0A9427DD107
:1051B000082812D2DFE800F0110406080A0C0E10CD
:1051C00080230AE0402308E0C02306E0202304E017
:1051D000602302E0A02300E0E023B14202D14FF4BB
:1051E000585000E03620914205D0B14203D0A94288
:1051F00001D043F00803194600F0BCF8A188A94289
:105200000ED0980606D520886288904208D2228067
:10521000608005E020886288904201D92280608009
:10522000B14249D1608900F095F8002000F08CF877
:105230006089401C80B200F08DF8002000F084F8F6
:105240006089801C80B200F085F82088401EC0F381
:105250000F2000F079F86089C01C80B200F07AF865
:105260002078401EC0B200F06FF8A08900F072F8FC
:10527000002000F069F8A089401C80B200F06AF8B4
:10528000002000F061F8A089801C80B200F062F874
:105290006088401EC0F30F2000F056F8A089C01CA3
:1052A00080B200F057F8A078401E00E02EE0BDE884
:1052B000F040C0B200F048B8608900F04BF8002020
:1052C00000F042F8002000F03FF82088401EC0F3B4
:1052D0000F2000F039F82078401EC0B200F034F8FA
:1052E000A08900F037F8002000F02EF8002000F030
:1052F0002BF86088401EC0F30F2000F025F8A0783E
:10530000BDE8F040401EC0B200F01EB8F0BD000085
:105310003839002010B502460B460A4C608900F06F
:1053200019F8100A00F010F8D0B200F00DF8A089BA
:1053300000F010F8180A00F007F8BDE81040D8B2E5
:1053400000F002B838390020014908807047000099
:105350008000006C01490880704700007E00006CEE
:10536000024803490089088070470000383900204E
:105370007E00006C014A1080518070477E00006CF6
:1053800010B5002124200AF085FF002125200AF015
:1053900081FF002145200AF07DFF002124200AF032
:1053A0008BFF002125200AF087FF002145200AF00D
:1053B00083FF012010BD000070B5FF23FF22084DC0
:1053C00005F5807605E010F8014B54402A5D5A40FF
:1053D000335D491E89B2F6D242EA032070BD000057
:1053E000466E010810B5806B01684A6822F003021E
:1053F0004A60416D41F010014165012180F8511072
:10540000FEF70BFD10BD10B5806BFEF72CFF10BD35
:1054100010B5806BFFF7E9F910BD10B5806BFFF791
:10542000E6F910BD70B50546AC6BFDF7C7FF024647
:1054300028680068C00527D42068416821F0200151
:105440004160A06818B96068B0F5827F16D0206806
:10545000416821F0010141606421204600F077F8A5
:1054600008B1202060650020E087012084F8510009
:10547000606D48B12046FEF7D0FC70BD20684168E1
:1054800021F003014160E7E72046FEF7EBFE70BD27
:1054900038B50546AC6BFDF791FF024628680068F9
:1054A000C00523D42068416821F0200141602068B4
:1054B000416821F0020141606421204600F08EF82D
:1054C00018B1606D40F020006065A068002118B937
:1054D0002068C26880680090E186012084F851004D
:1054E000606D18B12046FEF798FC38BD2046FFF7E6
:1054F0007BF938BD70B50546AC6BFDF75FFF024622
:1055000028680068C0051ED42068416821F0200189
:1055100041606421204600F061F818B1606D40F0F0
:10552000200060652068416821F00301416000208F
:10553000E086E087012084F85100606D18B12046B4
:10554000FEF76BFC70BD2046FFF750F970BDF8B553
:1055500004464FF4827560684FF48063A8420AD114
:10556000A068B0F5004F01D0984204D120680668C9
:1055700026F0400606606068A8421ED1A0689842E6
:105580000DD00B46009200228021204600F054F8F6
:1055900008B3606D40F0200060650320F8BD0B4645
:1055A000009200220121204600F046F898B1606D7B
:1055B00040F0200060650320F8BD0B4600920022F9
:1055C0000121204600F038F828B1606D40F020003D
:1055D00060650320F8BD0020F8BD00007CB50446DE
:1055E0001348144D0068B0FBF5F04FF47A7568432A
:1055F00001906068B0F5827F0DD10B4600920022C9
:105600008021204600F018F878B1606D40F020004D
:10561000606503207CBD019838B10198401E01905F
:1056200020688068C0430006F5D500207CBD0000DE
:105630004803002000366E012DE9F84304460F466A
:1056400091461E46089DFDF7B9FE401B351AFDF731
:10565000B5FE804626480068C0F3CB306843009012
:105660003AE0701C38D0FDF7A9FEA0EB0800A84274
:1056700003D215B1009858B32BE02068416821F09F
:10568000E00141606068B0F5827F0BD1A068B0F5A1
:10569000004F02D0B0F5806F04D12068016821F07E
:1056A00040010160A06AB0F5005F09D1206801687F
:1056B00021F4005101602068016841F4005101604B
:1056C000012050346070002020700320BDE8F88372
:1056D00000250098401E00902068806837EA00008E
:1056E00004D000204845BCD10020EFE70120F9E7B5
:1056F0004803002010B50AF069FA4FF0E020006975
:10570000C00301D5FDF768FE0BF012FFBDE81040A5
:105710000AF07ABA30B597B030210BA8FBF7F0F851
:10572000142106A8FBF7ECF80024029403940494D7
:1057300005942748016841F080510160006800F03D
:10574000805001902348016841F480410160006865
:1057500000F4804001900D200B904FF480300C90AD
:1057600001200D90109002251195800512900420C3
:105770001390A82014901595072016900BA8FEF7FB
:1057800013F918B1252114A000F08BFA0F20069010
:10579000079508944FF4A05009904FF480500A9058
:1057A000052106A8FDF75EFF18B131210AA000F01F
:1057B00078FA02954FF48070059002A8FDF7AEFECE
:1057C000002803D0372104A000F06BFA17B030BDD9
:1057D0004038024000700040626F6172645C626F2A
:1057E0006172642E630000000248016841F4700198
:1057F0000160704788ED00E010B50AF0E7F9034852
:1058000010F046FEBDE810400AF0FEB9303200202C
:1058100010B5806B0021C185C184FFF79FF810BDD2
:1058200070B5846B20684069C0F3C01094F83D10D7
:105830000025212904D118B1E584204600F0BDF8E7
:1058400020684069C0F3801094F83E10222904D1EA
:1058500018B1E585204600F07CF8206C40F010007F
:1058600020642046FFF77AF870BD10B50146886BBA
:1058700009680968C9052FD40021C18501680C3168
:1058800051E8002F22F4807241E80023002BF5D16B
:105890000168143151E8002F22F0010241E8002391
:1058A000002BF5D10168143151E8002F22F040029D
:1058B00041E80023002BF5D1202180F83E10016B38
:1058C000012909D101680C3151E8002F22F01002A2
:1058D00041E80023002BF5D1016B012902D0FFF72D
:1058E00064FA10BD818DFFF71FF810BD10B5806BF5
:1058F000016B012902D0FFF75CFA10BD818D4908C8
:10590000FFF712F810BD10B50146886B09680968E9
:10591000C90516D40021C1840168143151E8002F53
:1059200022F0800241E80023002BF5D101680C3100
:1059300051E8002F42F0400241E80023002BF5D14E
:1059400010BDFFF785FA10BD10B5806BFFF784FA24
:1059500010BD01680C3151E8002F22F4907241E82B
:105960000023002BF5D10168143151E8002F22F0FB
:10597000010241E80023002BF5D1016B012909D177
:1059800001680C3151E8002F22F0100241E8002399
:10599000002BF5D1202180F83E10002101637047D3
:1059A00010B50168CA6822F04002CA60202180F860
:1059B0003D10FFF74DFA002010BD01680C3151E891
:1059C000002F22F0C00241E80023002BF5D1202156
:1059D00080F83D10704708B590F83E10222901D09C
:1059E000022008BD82684FF480539A4201D10169B8
:1059F00021B1816A9A421DD052B10BE0816A0268DE
:105A00005268C2F308020A80816A891C816209E037
:105A100002697AB10268526802F07F020A70816AF4
:105A2000491C8162C18D491E0904090CC18505D03C
:105A3000002008BD026852680A70F0E70168CA6871
:105A400022F02002CA600168CA6822F48072CA602B
:105A500001684A6922F001024A61202180F83E1063
:105A6000016B012903D0FFF7A0F9002008BD002138
:105A7000016301680C3151E8002F22F0100241E867
:105A80000023002BF5D101680A68D20602D50A6806
:105A900049680091818DFEF747FFE6E72DE9F04167
:105AA000044620680169E26821F440511143016114
:105AB000A1682069E26901436069104301432068DD
:105AC000C26849F20C639A430A43C2602068416984
:105AD000A26921F440711143416133492068884231
